:020000040800F2
:1000000000800120410300089103000891030008CB
:10001000910300089103000891030008000000000C
:100020000000000000000000000000009103000834
:1000300091030008000000009103000891030008EC
:1000400000000000910300089103000891030008DC
:100050009103000891030008910300089103000830
:100060009103000891030008910300089103000820
:100070009103000891030008910300089103000810
:10008000910300089103000891030008000000009C
:1000900000000000000000000000000091030008C4
:1000A00091030008910300089103000891030008E0
:1000B00091030008910300089103000891030008D0
:1000C00091030008910300089103000891030008C0
:1000D000910300089103000891030008000000004C
:1000E000910300089103000891030008000000003C
:1000F0000000000000000000000000009103000864
:10010000000000009103000891030008910300081B
:1001100000000000000000000000000000000000DF
:10012000910300089103000891030008910300085F
:100130009103000800000000000000000000000023
:100140000000000000000000000000009103000813
:10015000910300089103000891030008910300082F
:100160009103000891030008000000000000000057
:10017000000000000000000000000000000000007F
:10018000000000000000000000000000000000006F
:0401900091030008CF
:1001940010B5054C237833B9044B13B10448AFF3BD
:1001A40000800123237010BD000000200000000027
:1001B400DC03000808B5034B1BB103490348AFF344
:1001C400008008BD0000000004000020DC030008DB
:1001D40080B400AF264B1B6B254A43F00103136325
:1001E400234B1B6C224A43F400331364214B1B68DA
:1001F400204A43F0200313601E4B1B681D4A43F042
:10020400800313601B4B9B681A4A43F0F00393600E
:10021400184B1B6A174A43F4E0631362154B1B6ABD
:10022400144A43F4E0431362134B0022DA60124B86
:10023400DB68114A43F40053D3600F4BDB680E4A6A
:1002440023F48053D3600C4B40F26D129A600A4B36
:10025400DB68094A43F00803D360074BDB68064AAE
:1002640043F00403D36000BFBD465DF8047B7047D0
:1002740000380240000002400044004080B483B0D3
:1002840000AF78600DE07B681A780B4B5A6000BFB2
:10029400094B1B6803F04003002BF9D07B68013342
:1002A4007B607B681B78002BEDD100BF00BF0C374F
:1002B400BD465DF8047B70470044004080B483B0C1
:1002C40000AF0346FB71084AFB79536000BF064B3D
:1002D4001B6803F04003002BF9D000BF00BF0C37AC
:1002E400BD465DF8047B70470044004080B400AF15
:1002F40000BF074B1B6803F02003002BF9D0044B0D
:100304005B68DBB21846BD465DF8047B704700BFEE
:100314000044004080B582B000AFFFF759FF0648A3
:10032400FFF7ACFFFFF7E2FF0346FB71FB791846CA
:10033400FFF7C4FFF6E700BFF40300080D48854645
:10034400AFF300800C480D490D4A002302E0D45855
:10035400C4500433C4188C42F9D30A4A0A4C00230B
:1003640001E013600432A242FBD300F011F8FFF75E
:10037400D1FFFEE7008001200000002000000020E3
:100384001C040008000000201C000020FEE7000000
:1003940070B50D4D0D4C641BA4100026A64209D166
:1003A4000B4D0C4C00F018F8641BA4100026A64258
:1003B40005D170BD55F8043B98470136EEE755F872
:1003C400043B98470136F2E71404000814040008BB
:1003D4001404000818040008F8B500BFF8BC08BCF1
:1003E4009E467047F8B500BFF8BC08BC9E467047EF
:1003F40009207265636965766572202D3E207265F9
:100404006369657665722064617461200A00000086
:04041400B901000822
:040418009501000842
:0400000508000341AB
:00000001FF
