:020000040800F2
:1000000000800120FD0200084D0300084D03000898
:100010004D0300084D0300084D03000800000000D8
:100020000000000000000000000000004D03000878
:100030004D030008000000004D0300084D030008B8
:10004000000000004D0300084D0300084D030008A8
:100050004D0300084D0300084D0300084D03000840
:100060004D0300084D0300084D0300084D03000830
:100070004D0300084D0300084D0300084D03000820
:100080004D0300084D0300084D0300080000000068
:100090000000000000000000000000004D03000808
:1000A0004D0300084D0300084D0300084D030008F0
:1000B0004D0300084D0300084D0300084D030008E0
:1000C0004D0300084D0300084D0300084D030008D0
:1000D0004D0300084D0300084D0300080000000018
:1000E0004D0300084D0300084D0300080000000008
:1000F0000000000000000000000000004D030008A8
:10010000000000004D0300084D0300084D030008E7
:1001100000000000000000000000000000000000DF
:100120004D0300084D0300084D0300084D0300086F
:100130004D03000800000000000000000000000067
:100140000000000000000000000000004D03000857
:100150004D0300084D0300084D0300084D0300083F
:100160004D0300084D0300080000000000000000DF
:10017000000000000000000000000000000000007F
:10018000000000000000000000000000000000006F
:040190004D03000813
:1001940010B5054C237833B9044B13B10448AFF3BD
:1001A40000800123237010BD000000200000000027
:1001B4009803000808B5034B1BB103490348AFF388
:1001C400008008BD0000000004000020980300081F
:1001D40080B400AF294B1B6B284A43F0010313631F
:1001E400264B1B6C254A43F400331364244B1B68D1
:1001F400234A43F020031360214B1B68204A43F039
:10020400800313601E4B1B681D4A43F48063136014
:100214001B4B1B681A4A23F400631360184B9B683A
:10022400174A43F0F0039360154B1B6A144A43F4D6
:10023400E0631362124B1B6A114A43F4E0431362F6
:10024400104B0022DA600F4BDB680E4A43F4005374
:10025400D3600C4BDB680B4A23F48053D360094B07
:1002640040F283629A60074BDB68064A43F0080356
:10027400D36000BFBD465DF8047B70470038024080
:10028400000002400044004080B483B000AF7860B6
:100294000DE07B681A780B4B5A6000BF094B1B6852
:1002A40003F04003002BF9D07B6801337B607B684B
:1002B4001B78002BEDD100BF00BF0C37BD465DF8A5
:1002C400047B70470044004080B582B000AFFFF764
:1002D4007FFF0748FFF7D8FF00237B6002E07B68BD
:1002E40001337B607B68034A9342F8DDF1E700BF8A
:1002F400B00300083F420F000D488546AFF300806D
:100304000C480D490D4A002302E0D458C45004336C
:10031400C4188C42F9D30A4A0A4C002301E0136042
:100324000432A242FBD300F011F8FFF7CDFFFEE741
:10033400008001200000002000000020C00300080D
:10034400000000201C000020FEE7000070B50D4DE9
:100354000D4C641BA4100026A64209D10B4D0C4C75
:1003640000F018F8641BA4100026A64205D170BD45
:1003740055F8043B98470136EEE755F8043B984797
:100384000136F2E7B8030008B8030008B803000810
:10039400BC030008F8B500BFF8BC08BC9E46704713
:0C03A400F8B500BFF8BC08BC9E467047CE
:0803B00068656C6C6F0D000024
:0403B800B90100087F
:0403BC00950100089F
:04000005080002FDF0
:00000001FF
