:020000040800F2
:1000000000800120A1020008F1020008F1020008AE
:10001000F1020008F1020008F102000800000000EF
:10002000000000000000000000000000F1020008D5
:10003000F102000800000000F1020008F1020008CF
:1000400000000000F1020008F1020008F1020008BF
:10005000F1020008F1020008F1020008F1020008B4
:10006000F1020008F1020008F1020008F1020008A4
:10007000F1020008F1020008F1020008F102000894
:10008000F1020008F1020008F1020008000000007F
:10009000000000000000000000000000F102000865
:1000A000F1020008F1020008F1020008F102000864
:1000B000F1020008F1020008F1020008F102000854
:1000C000F1020008F1020008F1020008F102000844
:1000D000F1020008F1020008F1020008000000002F
:1000E000F1020008F1020008F1020008000000001F
:1000F000000000000000000000000000F102000805
:1001000000000000F1020008F1020008F1020008FE
:1001100000000000000000000000000000000000DF
:10012000F1020008F1020008F1020008F1020008E3
:10013000F1020008000000000000000000000000C4
:10014000000000000000000000000000F1020008B4
:10015000F1020008F1020008F1020008F1020008B3
:10016000F1020008F1020008000000000000000099
:10017000000000000000000000000000000000007F
:10018000000000000000000000000000000000006F
:04019000F102000870
:1001940010B5054C237833B9044B13B10448AFF3BD
:1001A40000800123237010BD000000200000000027
:1001B4003C03000808B5034B1BB103490348AFF3E4
:1001C400008008BD00000000040000203C0300087B
:1001D40080B483B000AF2D4B1B6B2C4A43F001035A
:1001E40013632B4B1B682A4A43F480631360284B28
:1001F4001B68274A23F400631360244B1B6B234AB8
:1002040043F001031363234B1B68224A43F010039A
:100214001360204B1B681F4A43F0200313601C4BE0
:1002240020229A6100237B6002E07B6801337B60BB
:100234007B68194A9342F8D9154B4FF400129A611E
:1002440000237B6002E07B6801337B607B68124A99
:100254009342F8D90F4B04229A6100237B6002E099
:100264007B6801337B607B680B4A9342F8D9094B66
:100274004FF480229A6100237B6002E07B680133A3
:100284007B607B68044A9342F8D9C8E7003802408F
:1002940000000240000402403F420F000D48854622
:1002A400AFF300800C480D490D4A002302E0D458F6
:1002B400C4500433C4188C42F9D30A4A0A4C0023AC
:1002C40001E013600432A242FBD300F011F8FFF7FF
:1002D4007FFFFEE7008001200000002000000020D6
:1002E4005C030008000000201C000020FEE7000062
:1002F40070B50D4D0D4C641BA4100026A64209D107
:100304000B4D0C4C00F018F8641BA4100026A642F8
:1003140005D170BD55F8043B98470136EEE755F812
:10032400043B98470136F2E75403000854030008DD
:100334005403000858030008F8B500BFF8BC08BC13
:100344009E467047F8B500BFF8BC08BC9E4670478F
:04035400B9010008E3
:040358009501000803
:04000005080002A14C
:00000001FF
